:03000000020250A9
:0100030032CA
:03000B000201AD42
:0100130032BA
:01001B0032B2
:0100230032AA
:03002B000201D7F8
:10002E00C000788500D8FDD00022C000C00179281C
:10003E007868D8FED9FADAF6D001D00022D294121E
:10004E00002EC29422A2E79283A2E69282A2E592A9
:10005E0081A2E4928012004B12002EA2E39283A2A0
:10006E00E29282A2E19281A2E0928012004B22D211
:10007E0093020053C293020053C294C0027A281214
:10008E000038D0027433120082743312008274323C
:10009E001200827428120082740C120082740112F3
:1000AE000082C0027A02120038D00222E493600667
:1000BE0012007DA380F62244404480020082C0E0FC
:1000CE00E8C4540F443012007DE8540F443012003F
:1000DE007DD0E02254696D65202078783A78783AA0
:1000EE007878204100416C61726D2078783A78788A
:1000FE002041202D2D00416C61726D2078783A7868
:10010E00782041206F6E00416C61726D2078783AD4
:10011E0078782041202D2D004100500020203130D4
:10012E003131202620313130303F20202000414E09
:10013E005357455220494E204445433A2020202013
:10014E002000205448494E4B2048415244455221EC
:10015E0021202020002020202020202020202020B0
:10016E002020202020202000202030303131205E21
:10017E0020303130313F20200020414E5357455220
:10018E0020494E204445433A202000438E08E589FD
:10019E0054F04401F589758CF0758A2CD28C22C2EC
:1001AE008C758CF0758A2CD28CB2973275C800750E
:1001BE00CDBF75CC2843C98075CBBF75CA28E4F571
:1001CE0030F531439B80D2CA22C2CFB284C0E0C088
:1001DE00D00530E53070020531E530B432028003CF
:1001EE0002024BE531B40055D200B28CE4F530F585
:1001FE0031E53224018000D4F532E532B4603C752D
:10020E003200C2CAE4F530F531E5332401D4B460CE
:10021E0024E47400D4F533E5342401D4B4131AE481
:10022E007401D4F534E4E53AB40005753A01800B57
:10023E00753A008006F5338002F534D2CAD0D0D09C
:10024E00E03275817F75B10075B20075B30075B47B
:10025E000075AD0075AD001201991201BAD2AF1240
:10026E000087C0E07401141200C7D0E0C083C082C2
:10027E00C0E09000E21200BAD0E0D082D083C0E09D
:10028E007401141200C5D0E0C083C082C0E090009B
:10029E00F31200BAD0E0D082D083D200753500754B
:1002AE003600753701753800753901753B00753AA2
:1002BE00007B007C00C0E07407141200C7D0E0C0C1
:1002CE0000A8371200CCD00020961EC0027A64120D
:1002DE000038D002209612E5372401D4B41308E476
:1002EE007401D4F5378002F537C0E0740A14120099
:1002FE00C7D0E0C000A8361200CCD00020951CC09C
:10030E00027A64120038D002209510E5362401D40A
:10031E00B46006E47400D4F536F536C0E0740D14FE
:10032E001200C7D0E0C000A8351200CCD00020903B
:10033E001CC0027A64120038D002209010E53524D9
:10034E0001D4B46006E47400D4F535F5352091433C
:10035E00C0027A64120038D002209137E53A701B41
:10036E00753A01C0E07410141200C7D0E0C0E074FA
:10037E005012007DD0E0801B0202C3753A00C0E02F
:10038E007410141200C7D0E0C0E0744112007DD08A
:10039E00E080002092E2C0027A32120038D00220B1
:1003AE0092D67B00C0E07401141200C5D0E08535F2
:1003BE0032853633853734C083C082C0E090011554
:1003CE001200BAD0E0D082D083E53A7015C0E07446
:1003DE0010141200C7D0E0C0E0744112007DD0E0CE
:1003EE008013C0E07410141200C7D0E0C0E0745047
:1003FE0012007DD0E0C0E07407141200C5D0E0C03A
:10040E0000A8391200CCD00020961EC0027A6412C9
:10041E000038D002209612E5392401D4B41308E432
:10042E007401D4F5398002F539C0E0740A14120053
:10043E00C5D0E0C000A8381200CCD00020951CC05A
:10044E00027A64120038D002209510E5382401D4C7
:10045E00B46006E47400D4F538F53820913EC0023D
:10046E007AFA120038D002209132E53B7018753BB3
:10047E0001C0E0740D141200C5D0E0C0E07450123B
:10048E00007DD0E08016753B00C0E0740D141200A4
:10049E00C5D0E0C0E0744112007DD0E0E53B7015A0
:1004AE00C0E0740D141200C5D0E0C0E0744112001B
:1004BE007DD0E08013C0E0740D141200C5D0E0C0F2
:1004CE00E0745012007DD0E0C0E0740D141200C72D
:1004DE00D0E0C000A8321200CCD000C0E0740A14E4
:1004EE001200C7D0E0C000A8331200CCD000C0E08C
:1004FE007407141200C7D0E0C000A8341200CCD08C
:10050E0000C0E0740A141200C5D0E0C000A8381272
:10051E0000CCD000C0E07407141200C5D0E0C000BB
:10052E00A8391200CCD000209252C0027A64120078
:10053E0038D002209246EBB40122E47400FBC0E0F6
:10054E007401141200C5D0E0C083C082C0E09001D7
:10055E00151200BAD0E0D082D0838020E47401FB63
:10056E00C0E07401141200C5D0E0C083C082C0E0A8
:10057E009001041200BAD0E0D082D083EBB4012AED
:10058E00E53A953BD4B40022E53B953AD4B4001A33
:10059E00E5349539D4B40012E5399534D4B4000A53
:1005AE00E5339538D4B40002800302078FBB01FAFD
:1005BE00753C00D2A9C0E07401141200C7D0E0C08F
:1005CE0083C082C0E090012A1200BAD0E0D082D05F
:1005DE0083C0E07401141200C5D0E0C083C082C095
:1005EE00E090013C1200BAD0E0D082D08302069B8C
:1005FE00C0E07401141200C7D0E0C083C082C0E016
:10060E009001501200BAD0E0D082D083C0E07401C5
:10061E00141200C5D0E0C083C082C0E09001631206
:10062E0000BAD0E0D082D083C0027AC8120038D08F
:10063E0002C0027AC8120038D002C0027AC8120074
:10064E0038D002C0027AC8120038D002C0027AC86E
:10065E00120038D002C0E07401141200C7D0E0C0FE
:10066E0083C082C0E090012A1200BAD0E0D082D0BE
:10067E0083C0E07401141200C5D0E0C083C082C0F4
:10068E00E090013C1200BAD0E0D082D083C0E0747A
:10069E000F141200C5D0E0C000A83C1200CCD00050
:1006AE00209024C0027A64120038D002209018E5FF
:1006BE003C2401D4B41006E47400D4F53CF53C801F
:1006CE000602069B0205FE2092F7C0027A64120013
:1006DE0038D0022092EBE53C9408D4B400E67408BE
:1006EE00953CD4B400DE7B00C2A9C0E074011412A4
:1006FE0000C7D0E0C083C082C0E09000E21200BA12
:10070E00D0E0D082D083C0E07401141200C5D0E0D6
:10071E00C083C082C0E09000F31200BAD0E0D08255
:10072E00D083C0E0740D141200C7D0E0C000A83210
:10073E001200CCD000C0E0740A141200C7D0E0C082
:10074E0000A8331200CCD000C0E07407141200C70A
:10075E00D0E0C000A8341200CCD000C0E0740A145F
:10076E001200C5D0E0C000A8381200CCD000C0E006
:10077E007407141200C5D0E0C000A8391200CCD006
:0E078E000030000280030203D7C2000203D72E
:00000001FF
