:0300000002027683
:0100030032CA
:03000B000201CE21
:0100130032BA
:01001B0032B2
:0100230032AA
:03002B000201F8D7
:10002E00C000788500D8FDD00022C000C00179281C
:10003E007868D8FED9FADAF6D001D00022D294121E
:10004E00002EC29422A2E79283A2E69282A2E592A9
:10005E0081A2E4928012004B12002EA2E39283A2A0
:10006E00E29282A2E19281A2E0928012004B22D211
:10007E0093020053C293020053C294C0027A281214
:10008E000038D0027433120082743312008274323C
:10009E001200827428120082740C120082740112F3
:1000AE000082C0027A02120038D00222E493600667
:1000BE0012007DA380F62244404480020082C0E0FC
:1000CE00E8C4540F443012007DE8540F443012003F
:1000DE007DD0E02254696D65202078783A78783AA0
:1000EE007878204100416C61726D2078783A78788A
:1000FE002041202D2D00416C61726D2078783A7868
:10010E00782041206F6E00416C61726D2078783AD4
:10011E0078782041202D2D004100500020203130D4
:10012E003131202620313130303F20202000414E09
:10013E005357455220494E204445433A2020202013
:10014E002000205448494E4B2048415244455221EC
:10015E0021202020002020202020202020202020B0
:10016E002020202020202000202030303131205E21
:10017E0020303130313F202000414E535745522020
:10018E00494E204445433A20200020203030313162
:10019E00207C20303130313F202000414E535745D6
:1001AE005220494E204445433A202000438E08E514
:1001BE008954F04401F589758CF0758A2CD28C2205
:1001CE00C28C758CF0758A2CD28CB2973275C800A1
:1001DE0075CDBF75CC2843C98075CBBF75CA28E4D1
:1001EE00F530F531439B80D2CA22C2CFB284C0E033
:1001FE00C0D00530E53070020531E530B4E802803C
:10020E0003020271E531B4035AD200B28CE4F53028
:10021E00F531E53224018000D4F532E532B4604187
:10022E00753200C2CAE4F530F531E5332401D4B499
:10023E006016E47400D4F533E5342401D4B4130C01
:10024E00E47401D4F5348019F5338015F534B41205
:10025E0010E4E53AB40005753A018005753A008060
:10026E0000D2CAD0D0D0E03275817F75B10075B2A0
:10027E000075B30075B40075AD0075AD001201BA0E
:10028E001201DBD2AF120087C0E07401141200C756
:10029E00D0E0C083C082C0E09000E21200BAD0E08D
:1002AE00D082D083C0E07401141200C5D0E0C083A8
:1002BE00C082C0E09000F31200BAD0E0D082D083AA
:1002CE00D2007535007536007537017538007539F1
:1002DE0001753B00753A00753D007B007C00C0E067
:1002EE007407141200C7D0E0C000A8371200CCD09B
:1002FE000020961EC0027A64120038D00220961298
:10030E00E5372401D4B41308E47401D4F537800220
:10031E00F537C0E0740A141200C7D0E0C000A8364A
:10032E001200CCD00020951CC0027A64120038D086
:10033E0002209510E5362401D4B46006E47400D48E
:10034E00F536F536C0E0740D141200C7D0E0C000CB
:10035E00A8351200CCD00020901CC0027A64120086
:10036E0038D002209010E5352401D4B46006E47430
:10037E0000D4F535F535209143C0027A9612003837
:10038E00D002209137E53A701B753A01C0E0741027
:10039E00141200C7D0E0C0E0745012007DD0E0808F
:1003AE001B0202EC753A00C0E07410141200C7D0A4
:1003BE00E0C0E0744112007DD0E080002092E2C0E7
:1003CE00027A32120038D0022092D67B00C0E0743E
:1003DE0001141200C5D0E0853532853633853734A9
:1003EE00C083C082C0E09001151200BAD0E0D08266
:1003FE00D083E53A7015C0E07410141200C7D0E037
:10040E00C0E0744112007DD0E08013C0E07410147F
:10041E001200C7D0E0C0E0745012007DD0E0C0E002
:10042E007407141200C5D0E0C000A8391200CCD059
:10043E000020961EC0027A64120038D00220961256
:10044E00E5392401D4B41308E47401D4F5398002DB
:10045E00F539C0E0740A141200C5D0E0C000A83807
:10046E001200CCD00020951CC0027A64120038D045
:10047E0002209510E5382401D4B46006E47400D44B
:10048E00F538F53820913EC0027AFA120038D002C3
:10049E00209132E53B7018753B01C0E0740D1412CB
:1004AE0000C5D0E0C0E0745012007DD0E08016751B
:1004BE003B00C0E0740D141200C5D0E0C0E07441E2
:1004CE0012007DD0E0E53B7015C0E0740D141200F3
:1004DE00C5D0E0C0E0744112007DD0E08013C0E0D2
:1004EE00740D141200C5D0E0C0E0745012007DD01F
:1004FE00E0C0E0740D141200C7D0E0C000A83212A4
:10050E0000CCD000C0E0740A141200C7D0E0C000C6
:10051E00A8331200CCD000C0E07407141200C7D06C
:10052E00E0C000A8341200CCD000C0E0740A14124F
:10053E0000C5D0E0C000A8381200CCD000C0E074D6
:10054E0007141200C5D0E0C000A8391200CCD000AC
:10055E00209252C0027A64120038D002209246EBEA
:10056E00B40122E47400FBC0E07401141200C5D083
:10057E00E0C083C082C0E09001151200BAD0E0D076
:10058E0082D0838020E47401FBC0E0740114120059
:10059E00C5D0E0C083C082C0E09001041200BAD082
:1005AE00E0D082D083EBB4012AE53A953BD4B40077
:1005BE0022E53B953AD4B4001AE5349539D4B4000B
:1005CE0012E5399534D4B4000AE5339538D4B40025
:1005DE00028003020870BB01FA753C00D2A9E53D0A
:1005EE00B4003BC0E07401141200C7D0E0C083C059
:1005FE0082C0E090012A1200BAD0E0D082D083C02F
:10060E00E07401141200C5D0E0C083C082C0E09037
:10061E00013C1200BAD0E0D082D083020742B4016E
:10062E003BC0E07401141200C7D0E0C083C082C08A
:10063E00E09001761200BAD0E0D082D083C0E07490
:10064E0001141200C5D0E0C083C082C0E0900187C3
:10065E001200BAD0E0D082D083020742C0E074010B
:10066E00141200C7D0E0C083C082C0E0900198127F
:10067E0000BAD0E0D082D083C0E07401141200C55D
:10068E00D0E0C083C082C0E09001A91200BAD0E0D1
:10069E00D082D083020742C0E07401141200C7D08A
:1006AE00E0C083C082C0E09001501200BAD0E0D00A
:1006BE0082D083C0E07401141200C5D0E0C083C0A4
:1006CE0082C0E09001631200BAD0E0D082D083C025
:1006DE00027AC8120038D002C0027AC8120038D08E
:1006EE0002C0027AC8120038D002C0027AC81200C4
:1006FE0038D002C0027AC8120038D002C0E07401AD
:10070E00141200C7D0E0C083C082C0E090012A124C
:10071E0000BAD0E0D082D083C0E07401141200C5BC
:10072E00D0E0C083C082C0E090013C1200BAD0E09D
:10073E00D082D083C0E0740F141200C5D0E0C00088
:10074E00A83C1200CCD000209024C0027A64120083
:10075E0038D002209018E53C2401D4B41006E4747D
:10076E0000D4F53CF53C80060207420206A5209215
:10077E00F7C0027A64120038D0022092EBE53DB445
:10078E000016E53C9408D4B400E17408953CD4B44A
:10079E0000D9753D010207D5B40116E53C9406D487
:1007AE00B400C87406953CD4B400C0753D0202076F
:1007BE00D5E53C9407D4B400B27407953CD4B4008C
:1007CE00AA753D000207D57B00C2A9C0E0740114D2
:1007DE001200C7D0E0C083C082C0E09000E21200D9
:1007EE00BAD0E0D082D083C0E07401141200C5D01C
:1007FE00E0C083C082C0E09000F31200BAD0E0D017
:10080E0082D083C0E0740D141200C7D0E0C000A8DF
:10081E00321200CCD000C0E0740A141200C7D0E02F
:10082E00C000A8331200CCD000C0E0740714120030
:10083E00C7D0E0C000A8341200CCD000C0E0740ACB
:10084E00141200C5D0E0C000A8381200CCD000C0F1
:10085E00E07407141200C5D0E0C000A8391200CC15
:0F086E00D0003000028003020400C20002040028
:00000001FF
