:100000000200AAC000788500D8FDD00022C000C040
:100010000179287868D8FED9FADAF6D001D0002222
:10002000C000C00179287880D8FED9FADAF6D0016C
:10003000D00022C000C00179147880D8FED9FADA45
:10004000F6D001D00022D294120003C29422D2939F
:10005000020058C293020058A2E79283A2E692825D
:10006000A2E59281A2E49280120046A2E39283A2CA
:10007000E29282A2E19281A2E0928012004622C224
:10008000947A2812000D7433120053743312005303
:1000900074321200537428120053740C12005374FB
:1000A000011200537A0212000D2275817F75B10092
:1000B00075B20075B30075B40075AD0075AD001272
:1000C000007F7480120053744D12004E1200207491
:1000D00081120053744112004E12002074821200EB
:1000E00053745912004E120020748312005374414D
:1000F00012004E1200207485120053745412004EE8
:100100001200207486120053744112004E12002017
:100110007487120053745912004E12002074881212
:100120000053744C12004E12002074891200537454
:100130004F12004E120020748A12005374521200A3
:100140004E12002074C2120053743112004E74C358
:10015000120053743812004E74C4120053743412D7
:10016000004E74C5120053743812004E74C612004B
:1001700053743912004E74C7120053743612004E75
:1001800074C8120053743312004E74C912005374B1
:100190003312004E120020120020781312007F74D8
:1001A0009298120053744D12004E749298240112CA
:1001B0000053744112004E7492982402120053743A
:1001C0005912004E74929824031200537441120085
:0A01D0004E120033D8C611AA80FEBB
:00000001FF
